:080000000C9445000C94000073
:100008000C9400000C9400000C9400000C94000068
:100018000C9400000C9400000C9400000C94000058
:100028000C9400000C9400000C9400000C94000048
:100038000C9400000C9400000C9400000C94000038
:100048000C9400000C9400000C9400004175746F2F
:100058006D617469632048616E64005761736869F3
:100068006E67204D616368696E65000080C00F008F
:100078006001540010006F01630002007F017400EA
:100088000000F894EE27ECBBF1E0FBBFEBBFE5BF47
:100098008DE0A2E0BB27ED938A95E9F780E094E034
:1000A800A0E6ED930197E9F7E6E7F0E085919591F1
:1000B800009761F0A591B59105901590BF01F001E9
:1000C80005900D920197E1F7FB01F0CFEFE5EDBF49
:1000D800E4E0EEBFC0E6D1E00C947200E0E0EABBD9
:1000E800EBBBE7BBE8BBE4BBE5BBEFEFE1BBE0E0A4
:1000F800E2BBE3BFE2BFECBFEFBDEEBDEDBDECBDC3
:10010800E7BDE6BDEBBDEABDE9BDE8BDE2BDE5BDC5
:10011800E4BDE3BDE9BFE5BFE4BFEAB9E0E8E8B99B
:10012800E0E0E0BFE6B9EDB9E6BFA8E070D0A0E135
:100138006ED03DD0E0E0EA93A0E02CD0A0E6B1E09C
:1001480055D0E0E0EA93A1E025D0AFE6B1E04ED08B
:10015800EECFFFCFAA93E2B3EF70AE2FE881E07F36
:10016800EA2BE2BB82E18A95F1F7929A82E18A95BD
:10017800F1F7929882E18A95F1F772C0AA93A88163
:10018800E9DFE881E295E883A881E4DF87EB8A95D7
:10019800F1F766C0AA93E881F0E0E158FE4FE081EC
:1001A800A981AE0FEBDF5980488022960895A2E01E
:1001B80059D0ACE0E3DFA1E055D0E0E04E2E5E2E52
:1001C8000895AA93A881AA3011F0571448F0E0E0E6
:1001D800EA934394A42DDEDFA881AA3009F440C035
:1001E8005394909AA881CADF90983AC0BA93AA9378
:1001F8001A93A981BA81ED91A983BA831E2FE030A1
:1002080019F0A12FDEDFF5CF188123960895AA9360
:10021800E1B3E06FE1BB8A9A889A899A929890989C
:1002280091987880E881E058E0938101E881E05472
:10023800E0938201A4E1B0E00E94420118D017D0F7
:1002480016D0A0E287DF83E191E00197F1F7A8E2F9
:1002580095DFA4E093DFA5E891DFA6E08FDFA7DFB5
:10026800219608958BDFA3E0B0E00C944201A0E34F
:1002780071DF83E191E00197F1F70895109639F065
:100288008EEB9AE00197F1F7A8951197C9F70895B1
:00000001FF
